:100000000C942A000C944F020C9478020C94A102D8
:100010000C943C000C943C000C943C000C943C0070
:100020000C943C000C943C000C94BB000C9492008B
:100030000C943C000C943C000C943C000C943C0050
:100040000C943C000C943C000C943C000C943C0040
:100050000C943C0011241FBECFE5D8E0DEBFCDBF1D
:1000600010E0A0E6B0E001C01D92AF36B107E1F7A5
:100070000E9472040C94E2040C9400008FB582601C
:100080008FBD8FB58E7F8FBD8EB580618EBD8EB5D5
:1000900088608EBD8FB580688FBD8FB58F7B8FBD1B
:1000A0008FE19EE497BD86BD8CED95E09BBD8ABD3A
:1000B0008EB58B7F8EBD8EB582608EBD8EB58E7FE8
:1000C0008EBD089590E09BBD8ABD08959DBD8CBDF9
:1000D00008952CB53DB5C901089583B7886083BFE5
:1000E00083B7806483BF86E98CBF83B7887C83BF76
:1000F00083B7826283BF089583B7887F83BF0895E3
:1001000082BF0895009721F0909361008093600072
:100110000895009721F09093630080936200089502
:100120008CBF08951F920F920FB60F9211242F9338
:100130003F934F935F936F937F938F939F93AF936F
:10014000BF93EF93FF93E0916000F09161003097CF
:1001500009F00995FF91EF91BF91AF919F918F9118
:100160007F916F915F914F913F912F910F900FBEB3
:100170000F901F9018951F920F920FB60F92112497
:100180002F933F934F935F936F937F938F939F939F
:10019000AF93BF93EF93FF93E0916200F091630000
:1001A000309709F00995FF91EF91BF91AF919F9121
:1001B0008F917F916F915F914F913F912F910F9010
:1001C0000FBE0F901F9018951F93182F82E060E0CC
:1001D00040E00E94550382E061E040E00E94550348
:1001E00080E0612F0E94DF0382E062E041E00E9434
:1001F000550380EA9FE00197F1F782E062E040E07A
:100200000E9455031F910895813019F0823041F406
:1002100003C0862F815802C0862F81540E94E400BB
:1002200080ED97E00197F1F7089581E00E94E400E6
:1002300080EA9FE00197F1F708951F9380E69AEE18
:100240000197F1F788E30E94E4001AE6812F8A956E
:10025000F1F78FE00E94E4001A95F1F781E00E9427
:10026000E40080EA9FE00197F1F786E00E94E40055
:100270001F9108951F93182F82E060E041E00E94D3
:10028000550382E061E040E00E94550380E0612F69
:100290000E94DF0382E062E041E00E94550380EAB1
:1002A0009FE00197F1F782E062E040E00E94550391
:1002B0001F9108956F927F928F929F92AF92BF92FB
:1002C000CF92DF92EF92FF920F931F933B014C016D
:1002D000611571058105910519F480E30E943A01C9
:1002E00081E0A82EB12CC12CD12C20C0C601B501B3
:1002F0002AE030E040E050E00E94A1047B018C0144
:10030000C401B3010E94C0045B016C01AE0CBF1CB0
:10031000C01ED11EC401B3012AE030E040E050E02D
:100320000E94C004C901DA013C014D01611471044D
:1003300081049104D9F618C0C601B5012AE030E065
:1003400040E050E00E94C004862F805D0E943A0188
:10035000C601B5012AE030E040E050E00E94C00450
:10036000C901DA015C016D0181E0A816B104C10484
:10037000D10411F71F910F91FF90EF90DF90CF9074
:10038000BF90AF909F908F907F906F900895CF9384
:10039000DF93EC0103C021960E943A0188818823F3
:1003A000D1F7DF91CF9108958FB780688FBF0895FF
:1003B0008FB78F778FBF0895643008F5813051F083
:1003C000813018F08230D9F40EC085B78C7F85BF9C
:1003D00085B706C085B7837F85BF85B7660F660F73
:1003E000862B85BF0895623019F0633041F404C054
:1003F00084B78F7B84BF089584B7806484BF0895D9
:10040000813041F0813018F0823059F407C08BB749
:10041000806402C08BB780688BBF08958BB7806201
:100420008BBF0895813041F0813018F0823059F44B
:1004300007C08BB78F7B02C08BB78F778BBF0895B8
:100440008BB78F7D8BBF0895813041F0813018F0DC
:10045000823059F407C08AB7806402C08AB78068C6
:100460008ABF08958AB780628ABF089561157105B1
:10047000A9F0813051F0813018F0823079F40AC04F
:1004800070936500609364000895709367006093B3
:1004900066000895709369006093680008951F9244
:1004A0000F920FB60F9211242F933F934F935F93A8
:1004B0006F937F938F939F93AF93BF93EF93FF932C
:1004C000E0916400F0916500309709F00995FF9183
:1004D000EF91BF91AF919F918F917F916F915F91BC
:1004E0004F913F912F910F900FBE0F901F90189535
:1004F0001F920F920FB60F9211242F933F934F9399
:100500005F936F937F938F939F93AF93BF93EF937B
:10051000FF93E0916600F0916700309709F009952C
:10052000FF91EF91BF91AF919F918F917F916F91CB
:100530005F914F913F912F910F900FBE0F901F90A1
:1005400018951F920F920FB60F9211242F933F937D
:100550004F935F936F937F938F939F93AF93BF93CB
:10056000EF93FF93E0916800F0916900309709F0F4
:100570000995FF91EF91BF91AF919F918F917F91DD
:100580006F915F914F913F912F910F900FBE0F9000
:100590001F9018958FEF8ABB88E087BB87E084BBEC
:1005A00083E281BB1BBA18BA15BA84E082BB0895F6
:1005B000813031F1813038F0823009F43EC083302F
:1005C00009F072C056C0442321F0413009F06CC0DC
:1005D0000CC02AB381E090E002C0880F991F6A9591
:1005E000E2F7809582238ABB08952AB381E090E0E8
:1005F00002C0880F991F6A95E2F7282B2ABB08953D
:10060000442321F0413009F04FC00CC027B381E0F2
:1006100090E002C0880F991F6A95E2F780958223C7
:1006200087BB089527B381E090E002C0880F991F2F
:100630006A95E2F7282B27BB0895442319F041302F
:1006400099F50CC024B381E090E002C0880F991F97
:100650006A95E2F78095822384BB089524B381E0F4
:1006600090E002C0880F991F6A95E2F7282B24BBFF
:100670000895442319F04130B9F40CC021B381E04E
:1006800090E002C0880F991F6A95E2F78095822357
:1006900081BB089521B381E090E002C0880F991FCB
:1006A0006A95E2F7282B21BB0895813029F181302A
:1006B00038F0823009F43CC0833009F06EC053C07A
:1006C000442371F0413009F068C02BB381E090E021
:1006D00002C0880F991F6A95E2F7282B2BBB08955B
:1006E0002BB381E090E002C0880F991F6A95E2F772
:1006F000809582238BBB0895442371F0413009F02B
:100700004CC028B381E090E002C0880F991F6A9521
:10071000E2F7282B28BB089528B381E090E002C0BF
:10072000880F991F6A95E2F78095822388BB089508
:10073000442369F0413089F525B381E090E002C09F
:10074000880F991F6A95E2F7282B25BB089525B3DA
:1007500081E090E002C0880F991F6A95E2F78095CA
:10076000822385BB0895442369F04130B1F422B35C
:1007700081E090E002C0880F991F6A95E2F7282B6C
:1007800022BB089522B381E090E002C0880F991F38
:100790006A95E2F78095822382BB0895813049F003
:1007A000813028F0823039F0833041F406C06ABBD2
:1007B000089567BB089564BB089561BB08958130B7
:1007C00049F0813028F0823039F0833041F406C09E
:1007D0006BBB089568BB089565BB089562BB08951F
:1007E000813051F0813030F0823041F0833079F047
:1007F0008FEF089589B303C086B301C083B390E03F
:1008000002C0959587956A95E2F78170089580B347
:1008100090E002C0959587956A95E2F781700895FA
:10082000813091F0813028F08230C9F0833061F559
:1008300021C02BB381E090E002C0880F991F6A9518
:10084000E2F728272BBB089528B381E090E002C08F
:10085000880F991F6A95E2F7282728BB089525B3CA
:1008600081E090E002C0880F991F6A95E2F728277F
:1008700025BB089522B381E090E002C0880F991F44
:100880006A95E2F7282722BB089580916E008F5F5A
:1008900080936E00813029F480E090E00E94660031
:1008A0000895823059F40E94690090936B00809300
:1008B0006A0080E062E00E94DC010895833089F4E0
:1008C0000E94690020916A0030916B00821B930B9B
:1008D00090936D0080936C0010926E0080E00E94F7
:1008E000120208950E94CA020E941D0180E065E480
:1008F00074E00E94360280E063E00E94DC0180E048
:100900000E9400020E943E000E946D000E94D401DD
:1009100081E062E00E94040160916A0070916B00C6
:1009200080E090E00E945A0182E062E00E940401AF
:1009300060916C0070916D0080E090E00E945A011F
:10094000E7CF629FD001739FF001829FE00DF11D00
:10095000649FE00DF11D929FF00D839FF00D749F39
:10096000F00D659FF00D9927729FB00DE11DF91FE5
:10097000639FB00DE11DF91FBD01CF011124089542
:10098000A1E21A2EAA1BBB1BFD010DC0AA1FBB1F93
:10099000EE1FFF1FA217B307E407F50720F0A21B05
:1009A000B30BE40BF50B661F771F881F991F1A9472
:1009B00069F760957095809590959B01AC01BD019C
:0809C000CF010895F894FFCF68
:00000001FF
